:100000000C94ED000C9415010C9415010C94150141
:100010000C9415010C9415010C9415010C94150108
:100020000C9415010C9415010C948D040C94FF0490
:100030000C9415010C9415010C9415010C941501E8
:100040000C9415010C9415010C9415010C941501D8
:100050000C9415010C9415010C9415010C943C079B
:100060000C9415010C9415010C9415010C941501B8
:100070000C9415010C9415010C9415010C941501A8
:100080000C9415010C9415010C9415010C94150198
:100090000C9415010C9415010C9415010C94150188
:1000A0000C9415010C9415010C941501E602E9025B
:1000B000D802DC02E2020A030A030A03ED02F1029B
:1000C000F502FB02FF020A03050300000000240002
:1000D00027002A002D003000000000002500280025
:1000E0002B002E0031000000000023002600290014
:1000F0002C002F000404040404030405020202027D
:1001000004030202020206060606060604040202B0
:100110000204040408020110408040102040804086
:10012000800802040180402010020110801020404D
:1001300040200000000200090F0000030401000C31
:1001400000000000000000000000000000000000AF
:1001500000080B0002020201000904000001020273
:1001600000000524001001052401010104240206F9
:100170000524060001070581031000400904010061
:10018000020A000000070502024000000705830282
:100190004000000403090441726475696E6F204CCD
:1001A0004C430041726475696E6F204C656F6E61DF
:1001B00072646F001201000200000040412336808B
:1001C00000010102030112010002EF02014041237C
:1001D0003680000101020301860711241FBECFEF04
:1001E000DAE0DEBFCDBF11E0A0E0B1E0E8EAF1E186
:1001F00002C005900D92A432B107D9F721E0A4E224
:10020000B1E001C01D92A439B207E1F710E0CDEED4
:10021000D0E004C02197FE010E94C708CC3ED10760
:10022000C9F70E949B070C94D2080C940000FC01B3
:1002300080919301811103C08FEF9FEF08959FB7C5
:10024000F89482E08093E9002091F20030E01216E9
:10025000130614F421E030E02115310559F02898F7
:1002600084E6809392018091F10080838091F20076
:10027000882319F09FBFC90108958BE68093E80099
:10028000F9CFCF92DF92EF92FF920F931F93CF930C
:10029000DF936C017A018B01C0E0D0E0CE15DF0561
:1002A00089F0D8016D918D01D601ED91FC910190FD
:1002B000F081E02DC6010995892B11F47E0102C061
:1002C0002196ECCFC701DF91CF911F910F91FF9045
:1002D000EF90DF90CF90089580918A0181110DC039
:1002E00082E08093860184E08093870110928901E7
:1002F0001092880181E080938A0186E891E0089558
:10030000CF93DF931F92CDB7DEB76983DC01ED9108
:10031000FC910280F381E02D41E050E0BE016F5F6F
:100320007F4F09950F90DF91CF91089583E08093DF
:10033000E9008091F200882319F08AE38093E800B5
:100340000895CF93DF931F92CDB7DEB7FC0184856C
:10035000958597FD05C02FEF3FEF358724870BC0AC
:10036000CE0101960E941701019719F4898190E04E
:1003700002C08FEF9FEF0F90DF91CF9108950F9301
:100380001F93CF93DF931F92CDB7DEB78C01FC0193
:100390008485958597FF0EC0CE0101960E941701B6
:1003A000019719F4298130E002C02FEF3FEFF801E7
:1003B00035872487F801848595850F90DF91CF914B
:1003C0001F910F910895FC018485958597FD0BC0C1
:1003D0009FB7F89482E08093E9008091F2009FBF7C
:1003E00090E0019608959FB7F89482E08093E90029
:1003F0008091F2009FBF90E00895409130015091AC
:10040000310120912E0130912F0142175307B4F48E
:100410009091E8009570E1F39091E80092FD19C089
:100420008093F100809130019091310101968F739A
:100430009927892B19F48EEF8093E8008091300181
:10044000909131010196909331018093300181E0C8
:10045000089580E00895CF92DF92EF92FF920F937C
:100460001F93CF93DF931F92CDB7DEB7182F062FC0
:10047000E42E862F880F8E5F99830E94FD0183E012
:100480000E94FD01F12EC12E9981D92E8C2D8F193C
:10049000801798F4F601E7FE02C0849101C08081C4
:1004A0000E94FD01182F80E00E94FD018123FFEFD3
:1004B000CF1ADF0A8111EACF01C081E00F90DF91EE
:1004C000CF911F910F91FF90EF90DF90CF90089503
:1004D000DF92EF92FF920F931F93CF93DF93D82E6B
:1004E0008A017B01E40EF51EEB01CE15DF0571F0EC
:1004F000D7FE03C0FE01849101C088810E94FD01E6
:1005000021968111F2CF8FEF9FEF01C0C801DF91DB
:10051000CF911F910F91FF90EF90DF9008950F936F
:100520001F93CF93DF931F92CDB7DEB782E089830D
:1005300042E450E061E571E080E80E9468020E94B8
:100540006C01DC0112960D911C9113970115110598
:1005500069F0D801ED91FC910280F381E02DBE019C
:100560006F5F7F4FC801099597FF07C089810F9082
:10057000DF91CF911F910F910895F80100851185AA
:10058000E5CF615030F02091F100FC01208301960D
:10059000F8CF289884E680939201089590E0FC01BA
:1005A0003197EF30F105B0F5EA5AFF4F0C94C708C8
:1005B000809180008F7703C0809180008F7D809331
:1005C0008000089580918000877FF9CF84B58F7770
:1005D00002C084B58F7D84BD0895809190008F778F
:1005E00007C0809190008F7D03C080919000877F2D
:1005F0008093900008958091C0008F7703C0809110
:10060000C0008F7D8093C00008958091C200877FD5
:100610008093C2000895CF93DF93282F30E0F90133
:10062000EE5CFE4F8491F901ED5EFE4FD491F9012D
:10063000EC50FF4FC491CC2391F081110E94CE0267
:10064000EC2FF0E0EE0FFF1FEA51FF4FA591B491A0
:10065000EC91ED2381E090E021F480E002C080E0A5
:1006600090E0DF91CF9108951F93CF93DF93282FD0
:1006700030E0F901EE5CFE4F8491F901ED5EFE4F32
:10068000D491F901EC50FF4FC491CC23C9F0162F3F
:1006900081110E94CE02EC2FF0E0EE0FFF1FE85216
:1006A000FF4FA591B4918FB7F894111105C09C919B
:1006B000ED2FE095E92302C0EC91ED2BEC938FBF79
:1006C000DF91CF911F910895CF93DF9390E0FC01CC
:1006D000ED5EFE4F2491FC01EC50FF4F8491882386
:1006E00061F190E0880F991FFC01E653FF4FC5911F
:1006F000D491FC01E852FF4FA591B491611109C05A
:100700009FB7F8948881209582238883EC912E23CB
:100710000BC0623061F49FB7F8943881822F8095C6
:1007200083238883EC912E2B2C939FBF06C08FB719
:10073000F894E8812E2B28838FBFDF91CF91089505
:100740003FB7F8948091290190912A01A0912B0143
:10075000B0912C0126B5A89B05C02F3F19F001963A
:10076000A11DB11D3FBFBA2FA92F982F8827820F37
:10077000911DA11DB11DBC01CD0142E0660F771F87
:10078000881F991F4A95D1F708958F929F92AF9233
:10079000BF92CF92DF92EF92FF926B017C010E9499
:1007A000A0034B015C01C114D104E104F104F1F098
:1007B0000E94A003DC01CB0188199909AA09BB0991
:1007C000883E9340A105B10570F321E0C21AD1081B
:1007D000E108F10888EE880E83E0981EA11CB11C88
:1007E000C114D104E104F10419F7DDCFFF90EF90BB
:1007F000DF90CF90BF90AF909F908F9008958F9291
:100800009F92AF92BF92CF92DF92EF92FF920F939F
:100810001F93CF93DF935C016B018A0180910B01E1
:10082000882309F45EC080919301882309F459C09C
:100830008091350180FF05C08091E0008260809347
:10084000E000E8018AEFF82E93E0E92E2FE3822EF4
:100850003AE3932E209709F43DC08FB7F894E092C5
:10086000E9009091E80095FF06C09091F200282DD4
:10087000291B922F01C090E08FBF91110AC0FA94FA
:10088000FF2079F161E070E080E090E00E94C50314
:10089000E1CF292F30E0C217D3070CF49C2F8FB77C
:1008A000F894E092E9002091E80025FF11C0292F7B
:1008B00030E0C21BD30BF601915020F041914093E0
:1008C000F100FACFC20ED31E9091E80095FF13C03D
:1008D0008FBFC0CF5D9884E6809334011016110657
:1008E00044F081E090E0F5019383828380E090E022
:1008F00005C0C80103C09092E800EACFDF91CF9114
:100900001F910F91FF90EF90DF90CF90BF90AF902D
:100910009F908F9008950E94CD081F920F920FB65E
:100920000F9211248F939F938091E1009091E100A9
:10093000937F9093E10083FF0FC01092E90091E054
:100940009093EB001092EC0092E39093ED001092E4
:10095000930198E09093F00082FF20C093E0909381
:10096000E9009091F200992319F09AE39093E8003E
:1009700090913401992339F09091340191509093E2
:100980003401992389F190919201992339F0909142
:100990009201915090939201992341F184FF10C0EC
:1009A0008091E2008E7E81608093E2008091E10080
:1009B0008F7E8093E100809135018E7E806111C031
:1009C00080FF16C08091E2008E7E80618093E200FD
:1009D0008091E1008E7E8093E100809135018E7ED2
:1009E00081608093350104C05D9ACDCF289AD6CF1F
:1009F0009F918F910F900FBE0F901F9018951F928F
:100A00000F920FB60F921124CF92DF92EF92FF92C6
:100A10000F931F932F933F934F935F936F937F9306
:100A20008F939F93AF93BF93EF93FF93CF93DF93F6
:100A3000CDB7DEB76C97DEBFCDBF1092E9008091D5
:100A4000E80083FFFAC168E0CE0145960E94C1022A
:100A500082EF8093E8008D8987FF05C09091E800C0
:100A600090FFFCCF03C09EEF9093E800982F907604
:100A700009F0C6C09E892F89188D91110CC080384D
:100A800029F4809133018093F10002C01092F100AB
:100A90001092F10047C1422F50E0512B913051F498
:100AA000811140C14130510509F03CC180913301B1
:100AB0008D7F0BC0933061F4811134C141305105F9
:100AC00009F030C1809133018260809333012AC1E3
:100AD000953041F48091E80080FFFCCF206820939E
:100AE000E30020C1963009F05FC0EB8CFC8C1092C3
:100AF000E9001092310110923001123091F51092FC
:100B00002F0110922E010E948F0299E0BE016F5FAB
:100B10007F4FDB01E92F1D92EA95E9F799831A834C
:100B200091E09E8390EA98879AEF9987209130010F
:100B300030913101275F3F4F3C832B838D8310928F
:100B4000E9001092310110923001F0922F01E092F1
:100B50002E0149E050E080E00E9468020E948F026E
:100B6000E1C0F0922F01E0922E010E946C01DC01A5
:100B70001296ED90FC901397E114F10409F4C0C0B3
:100B8000D701ED91FC910480F581E02DBE016B5EF3
:100B90007F4FC7010995009719F00CF0C3C0C6C07C
:100BA000F701E084F184E8CF973009F4BFC09830B2
:100BB00021F481E08093F100B5C0993009F0B2C012
:100BC000837009F0B3C0EDE0F1E081E021E036E3AD
:100BD0009081992361F08093E9002093EB0091913B
:100BE0009093EC003093ED008F5F873089F78EE7AC
:100BF0008093EA001092EA008F898093930192C05B
:100C00008B8D9C8D1092E900109231011092300171
:100C100090932F0180932E01898D811156C08E896A
:100C20009D89913A59F4813209F080C047E050E043
:100C300064E071E080E00E94680274C0913209F0C3
:100C400075C0833289F4888D90E0982F88272F898A
:100C5000822BA0E0B0E08093000190930101A0936B
:100C60000201B09303015EC0803269F48091E80014
:100C700082FFFCCF67E084E091E00E94C1028BEF2D
:100C80008093E80006C0823209F04CC08F898093BF
:100C90000B0180913201882319F0EEEFFAE002C0D7
:100CA000E0E0F8E08091040190910501A091060137
:100CB000B0910701803B9440A105B10509F088C0BF
:100CC00080910B0180FFA0C083C00E946C01DC01F9
:100CD00012960D911C9113970115110539F1D80148
:100CE000ED91FC910190F081E02DBE016B5E7F4F94
:100CF000C8010995811116C0F80100851185ECCF56
:100D00001130C1F0133091F48F89882309F455C054
:100D10008230E9F440E860E183EA91E00E942B022E
:100D2000882321F08EEF8093E80087C081E28093D2
:100D3000EB0083C08B8D9C8D089711F410932D01CF
:100D400080912D01811136C064EB71E038C0813093
:100D500029F440E86BE087E991E0E0CF833031F798
:100D60000E946C01DC011296ED90FC9013978E01AD
:100D70000F5F1F4F6801E114F10479F0D701ED9185
:100D8000FC910680F781E02DB801C7010995080F95
:100D9000111DF701E084F184EECFD8011C92F60119
:100DA00001900020E9F73197BF016C197D0940E0FF
:100DB000C601B4CF66EC71E002C063E971E0611571
:100DC000710509F4B3CFFB01449150E080E833CFC3
:100DD0000FB6F894A89580916000886180936000B8
:100DE000109260000FBEA895EE3F2AE0F20739F09E
:100DF0008091FE0A9091FF0A9183808393CF109295
:100E0000FF0A1092FE0A8ECFEE3F8AE0F80731F01B
:100E1000808191819093FF0A8093FE0A87E797E78C
:100E2000918380839BE088E10FB6F894A895809326
:100E300060000FBE9093600075CF6C960FB6F8946B
:100E4000DEBF0FBECDBFDF91CF91FF91EF91BF917C
:100E5000AF919F918F917F916F915F914F913F9152
:100E60002F911F910F91FF90EF90DF90CF900F90F7
:100E70000FBE0F901F9018951F920F920FB60F92F2
:100E800011242F933F938F939F93AF93BF938091A0
:100E9000250190912601A0912701B0912801309160
:100EA000240123E0230F2D3720F40196A11DB11D4D
:100EB00005C026E8230F0296A11DB11D2093240131
:100EC0008093250190932601A0932701B0932801D8
:100ED0008091290190912A01A0912B01B0912C01C0
:100EE0000196A11DB11D8093290190932A01A09321
:100EF0002B01B0932C01BF91AF919F918F913F91A6
:100F00002F910F900FBE0F901F901895E6E3F1E020
:100F10001382128288EE93E0A0E0B0E08483958390
:100F2000A683B78387E191E0918380838FEF9FEF62
:100F3000958784870895789484B5826084BD84B54C
:100F4000816084BD85B5826085BD85B5816085BDC4
:100F500080916E00816080936E001092810080917C
:100F60008100826080938100809181008160809304
:100F70008100809180008160809380008091910049
:100F800082608093910080919100816080939100B4
:100F9000809190008160809390008091C100846076
:100FA0008093C1008091C10082608093C1008091D4
:100FB000C10081608093C1008091C30081608093F3
:100FC000C3008091C00082608093C0008091C20005
:100FD00081608093C20080917A00846080937A005F
:100FE00080917A00826080937A0080917A0081609B
:100FF00080937A0080917A00806880937A001092C2
:10100000930110923301109235018091D7008160D5
:101010008093D70080EA8093D80089B5806189BD2C
:1010200089B5826089BD09B400FEFDCF61E070E042
:1010300080E090E00E94C5038091D8008F7C8061A1
:101040008093D8008091E000807F8093E0008091C1
:10105000E1008E7E8093E1008DE08093E200559A5E
:10106000209AEEEFFFE7859194918B3F9C4D19F408
:1010700081E08093320161E080E00E94640361E0DE
:101080008DE00E94640361E082E00E94640362E0FC
:1010900085E00E94640362E086E00E94640362E0EF
:1010A00087E00E94640362E088E00E946403C0E07D
:1010B000D0E085E00E940B03892B11F461E001C0B0
:1010C00060E08DE00E94340386E00E940B03892BD0
:1010D000A9F461E080E00E94340360E971E080E0FF
:1010E00090E00E94C50360E080E00E9434036CE25F
:1010F00071E080E090E00E94C50304C060E080E001
:101100000E94340387E00E940B03892BA9F461E05D
:1011100082E00E94340360E971E080E090E00E9488
:10112000C50360E082E00E9434036CE271E080E07D
:1011300090E00E94C50304C060E082E00E94340396
:1011400088E00E940B03892BE1F461E082E00E94B9
:10115000340361E080E00E94340360E971E080E0E4
:1011600090E00E94C50360E082E00E94340360E0EA
:1011700080E00E9434036CE271E080E090E00E9425
:10118000C503209709F495CF0E94000092CFEE0F7F
:10119000FF1F0590F491E02D099481E090E0F89410
:0811A0000C94D208F894FFCF73
:1011A800FFFFFFFF00E100000000000000C1808198
:1011B800000000000000008001FF03E301A101BF5F
:0411C800019601008B
:00000001FF
